{
  "contractName": "CrowdFunding",
  "abi": [
    {
      "anonymous": false,
      "inputs": [
        {
          "indexed": false,
          "internalType": "uint256",
          "name": "campaignId",
          "type": "uint256"
        },
        {
          "indexed": false,
          "internalType": "bool",
          "name": "targetReached",
          "type": "bool"
        }
      ],
      "name": "CampaignClosed",
      "type": "event"
    },
    {
      "anonymous": false,
      "inputs": [
        {
          "indexed": false,
          "internalType": "uint256",
          "name": "campaignId",
          "type": "uint256"
        },
        {
          "indexed": false,
          "internalType": "address",
          "name": "owner",
          "type": "address"
        },
        {
          "indexed": false,
          "internalType": "string",
          "name": "title",
          "type": "string"
        },
        {
          "indexed": false,
          "internalType": "uint256",
          "name": "target",
          "type": "uint256"
        }
      ],
      "name": "CampaignCreated",
      "type": "event"
    },
    {
      "anonymous": false,
      "inputs": [
        {
          "indexed": false,
          "internalType": "uint256",
          "name": "campaignId",
          "type": "uint256"
        },
        {
          "indexed": false,
          "internalType": "address",
          "name": "donor",
          "type": "address"
        },
        {
          "indexed": false,
          "internalType": "uint256",
          "name": "amount",
          "type": "uint256"
        }
      ],
      "name": "DonationMade",
      "type": "event"
    },
    {
      "anonymous": false,
      "inputs": [
        {
          "indexed": false,
          "internalType": "uint256",
          "name": "campaignId",
          "type": "uint256"
        },
        {
          "indexed": false,
          "internalType": "address",
          "name": "owner",
          "type": "address"
        },
        {
          "indexed": false,
          "internalType": "uint256",
          "name": "amount",
          "type": "uint256"
        }
      ],
      "name": "FundsWithdrawn",
      "type": "event"
    },
    {
      "anonymous": false,
      "inputs": [
        {
          "indexed": false,
          "internalType": "uint256",
          "name": "campaignId",
          "type": "uint256"
        },
        {
          "indexed": false,
          "internalType": "address",
          "name": "donor",
          "type": "address"
        },
        {
          "indexed": false,
          "internalType": "uint256",
          "name": "amount",
          "type": "uint256"
        }
      ],
      "name": "RefundIssued",
      "type": "event"
    },
    {
      "inputs": [
        {
          "internalType": "uint256",
          "name": "",
          "type": "uint256"
        }
      ],
      "name": "campaigns",
      "outputs": [
        {
          "internalType": "address",
          "name": "owner",
          "type": "address"
        },
        {
          "internalType": "string",
          "name": "title",
          "type": "string"
        },
        {
          "internalType": "string",
          "name": "description",
          "type": "string"
        },
        {
          "internalType": "uint256",
          "name": "target",
          "type": "uint256"
        },
        {
          "internalType": "uint256",
          "name": "deadline",
          "type": "uint256"
        },
        {
          "internalType": "uint256",
          "name": "amountCollected",
          "type": "uint256"
        },
        {
          "internalType": "string",
          "name": "image",
          "type": "string"
        },
        {
          "internalType": "bool",
          "name": "isActive",
          "type": "bool"
        },
        {
          "internalType": "bool",
          "name": "targetReached",
          "type": "bool"
        },
        {
          "internalType": "uint256",
          "name": "minimumContribution",
          "type": "uint256"
        },
        {
          "internalType": "string",
          "name": "category",
          "type": "string"
        },
        {
          "internalType": "uint256",
          "name": "createdAt",
          "type": "uint256"
        }
      ],
      "stateMutability": "view",
      "type": "function",
      "constant": true
    },
    {
      "inputs": [],
      "name": "numberOfCampaigns",
      "outputs": [
        {
          "internalType": "uint256",
          "name": "",
          "type": "uint256"
        }
      ],
      "stateMutability": "view",
      "type": "function",
      "constant": true
    },
    {
      "inputs": [],
      "name": "platformFee",
      "outputs": [
        {
          "internalType": "uint256",
          "name": "",
          "type": "uint256"
        }
      ],
      "stateMutability": "view",
      "type": "function",
      "constant": true
    },
    {
      "inputs": [
        {
          "internalType": "address",
          "name": "",
          "type": "address"
        },
        {
          "internalType": "uint256",
          "name": "",
          "type": "uint256"
        }
      ],
      "name": "userCampaigns",
      "outputs": [
        {
          "internalType": "uint256",
          "name": "",
          "type": "uint256"
        }
      ],
      "stateMutability": "view",
      "type": "function",
      "constant": true
    },
    {
      "inputs": [
        {
          "internalType": "address",
          "name": "",
          "type": "address"
        },
        {
          "internalType": "uint256",
          "name": "",
          "type": "uint256"
        }
      ],
      "name": "userDonations",
      "outputs": [
        {
          "internalType": "uint256",
          "name": "",
          "type": "uint256"
        }
      ],
      "stateMutability": "view",
      "type": "function",
      "constant": true
    },
    {
      "inputs": [
        {
          "internalType": "address",
          "name": "",
          "type": "address"
        },
        {
          "internalType": "uint256",
          "name": "",
          "type": "uint256"
        }
      ],
      "name": "userTransactions",
      "outputs": [
        {
          "internalType": "uint256",
          "name": "campaignId",
          "type": "uint256"
        },
        {
          "internalType": "string",
          "name": "campaignTitle",
          "type": "string"
        },
        {
          "internalType": "uint256",
          "name": "amount",
          "type": "uint256"
        },
        {
          "internalType": "uint256",
          "name": "timestamp",
          "type": "uint256"
        },
        {
          "internalType": "enum CrowdFunding.TransactionType",
          "name": "txType",
          "type": "uint8"
        }
      ],
      "stateMutability": "view",
      "type": "function",
      "constant": true
    },
    {
      "inputs": [
        {
          "internalType": "address",
          "name": "_owner",
          "type": "address"
        },
        {
          "internalType": "string",
          "name": "_title",
          "type": "string"
        },
        {
          "internalType": "string",
          "name": "_description",
          "type": "string"
        },
        {
          "internalType": "uint256",
          "name": "_target",
          "type": "uint256"
        },
        {
          "internalType": "uint256",
          "name": "_deadline",
          "type": "uint256"
        },
        {
          "internalType": "string",
          "name": "_image",
          "type": "string"
        },
        {
          "internalType": "uint256",
          "name": "_minimumContribution",
          "type": "uint256"
        },
        {
          "internalType": "string",
          "name": "_category",
          "type": "string"
        }
      ],
      "name": "createCampaign",
      "outputs": [
        {
          "internalType": "uint256",
          "name": "",
          "type": "uint256"
        }
      ],
      "stateMutability": "nonpayable",
      "type": "function"
    },
    {
      "inputs": [
        {
          "internalType": "uint256",
          "name": "_id",
          "type": "uint256"
        }
      ],
      "name": "donateToCampaign",
      "outputs": [],
      "stateMutability": "payable",
      "type": "function",
      "payable": true
    },
    {
      "inputs": [
        {
          "internalType": "address",
          "name": "_user",
          "type": "address"
        }
      ],
      "name": "getUserTransactions",
      "outputs": [
        {
          "components": [
            {
              "internalType": "uint256",
              "name": "campaignId",
              "type": "uint256"
            },
            {
              "internalType": "string",
              "name": "campaignTitle",
              "type": "string"
            },
            {
              "internalType": "uint256",
              "name": "amount",
              "type": "uint256"
            },
            {
              "internalType": "uint256",
              "name": "timestamp",
              "type": "uint256"
            },
            {
              "internalType": "enum CrowdFunding.TransactionType",
              "name": "txType",
              "type": "uint8"
            }
          ],
          "internalType": "struct CrowdFunding.Transaction[]",
          "name": "",
          "type": "tuple[]"
        }
      ],
      "stateMutability": "view",
      "type": "function",
      "constant": true
    },
    {
      "inputs": [
        {
          "internalType": "uint256",
          "name": "_id",
          "type": "uint256"
        }
      ],
      "name": "closeCampaign",
      "outputs": [],
      "stateMutability": "nonpayable",
      "type": "function"
    },
    {
      "inputs": [
        {
          "internalType": "address",
          "name": "_user",
          "type": "address"
        }
      ],
      "name": "getUserCampaigns",
      "outputs": [
        {
          "internalType": "uint256[]",
          "name": "",
          "type": "uint256[]"
        }
      ],
      "stateMutability": "view",
      "type": "function",
      "constant": true
    },
    {
      "inputs": [
        {
          "internalType": "address",
          "name": "_user",
          "type": "address"
        }
      ],
      "name": "getUserDonations",
      "outputs": [
        {
          "internalType": "uint256[]",
          "name": "",
          "type": "uint256[]"
        }
      ],
      "stateMutability": "view",
      "type": "function",
      "constant": true
    },
    {
      "inputs": [
        {
          "internalType": "string",
          "name": "_category",
          "type": "string"
        }
      ],
      "name": "getCampaignsByCategory",
      "outputs": [
        {
          "internalType": "uint256[]",
          "name": "",
          "type": "uint256[]"
        }
      ],
      "stateMutability": "view",
      "type": "function",
      "constant": true
    },
    {
      "inputs": [
        {
          "internalType": "uint256",
          "name": "_id",
          "type": "uint256"
        }
      ],
      "name": "getDonators",
      "outputs": [
        {
          "internalType": "address[]",
          "name": "",
          "type": "address[]"
        },
        {
          "internalType": "uint256[]",
          "name": "",
          "type": "uint256[]"
        }
      ],
      "stateMutability": "view",
      "type": "function",
      "constant": true
    },
    {
      "inputs": [
        {
          "internalType": "uint256",
          "name": "_id",
          "type": "uint256"
        }
      ],
      "name": "getCampaignStats",
      "outputs": [
        {
          "internalType": "uint256",
          "name": "totalDonors",
          "type": "uint256"
        },
        {
          "internalType": "uint256",
          "name": "averageDonation",
          "type": "uint256"
        },
        {
          "internalType": "uint256",
          "name": "timeLeft",
          "type": "uint256"
        },
        {
          "internalType": "bool",
          "name": "isActive",
          "type": "bool"
        },
        {
          "internalType": "bool",
          "name": "targetReached",
          "type": "bool"
        }
      ],
      "stateMutability": "view",
      "type": "function",
      "constant": true
    },
    {
      "inputs": [],
      "name": "getCampaigns",
      "outputs": [
        {
          "components": [
            {
              "internalType": "address",
              "name": "owner",
              "type": "address"
            },
            {
              "internalType": "string",
              "name": "title",
              "type": "string"
            },
            {
              "internalType": "string",
              "name": "description",
              "type": "string"
            },
            {
              "internalType": "uint256",
              "name": "target",
              "type": "uint256"
            },
            {
              "internalType": "uint256",
              "name": "deadline",
              "type": "uint256"
            },
            {
              "internalType": "uint256",
              "name": "amountCollected",
              "type": "uint256"
            },
            {
              "internalType": "string",
              "name": "image",
              "type": "string"
            },
            {
              "internalType": "address[]",
              "name": "donators",
              "type": "address[]"
            },
            {
              "internalType": "uint256[]",
              "name": "donations",
              "type": "uint256[]"
            },
            {
              "internalType": "bool",
              "name": "isActive",
              "type": "bool"
            },
            {
              "internalType": "bool",
              "name": "targetReached",
              "type": "bool"
            },
            {
              "internalType": "uint256",
              "name": "minimumContribution",
              "type": "uint256"
            },
            {
              "internalType": "string",
              "name": "category",
              "type": "string"
            },
            {
              "internalType": "uint256",
              "name": "createdAt",
              "type": "uint256"
            }
          ],
          "internalType": "struct CrowdFunding.Campaign[]",
          "name": "",
          "type": "tuple[]"
        }
      ],
      "stateMutability": "view",
      "type": "function",
      "constant": true
    },
    {
      "inputs": [],
      "name": "getActiveCampaigns",
      "outputs": [
        {
          "internalType": "uint256[]",
          "name": "",
          "type": "uint256[]"
        }
      ],
      "stateMutability": "view",
      "type": "function",
      "constant": true
    }
  ],
  "bytecode": "0x608060405260006004556019600555348015601957600080fd5b506122df806100296000396000f3fe6080604052600436106100fe5760003560e01c8063660bf9de11610095578063b0e1c1e111610064578063b0e1c1e1146102d8578063b842ec44146102f8578063c362b15614610329578063de5eb7731461033e578063ef9253991461035e57600080fd5b8063660bf9de1461022a578063732435b214610276578063a1e5084c14610296578063a6b03633146102b657600080fd5b806326232a2e116100d157806326232a2e146101b257806342a4fda8146101c857806345f5b737146101dd5780634933e6311461020a57600080fd5b806307ca140d146101035780630fa91fa91461012c578063141961bc1461015a57806319ac74bd14610192575b600080fd5b34801561010f57600080fd5b5061011960045481565b6040519081526020015b60405180910390f35b34801561013857600080fd5b5061014c61014736600461193c565b61038b565b604051610123929190611991565b34801561016657600080fd5b5061017a61017536600461193c565b610485565b6040516101239c9b9a99989796959493929190611a38565b34801561019e57600080fd5b506101196101ad366004611af9565b610711565b3480156101be57600080fd5b5061011960055481565b6101db6101d636600461193c565b610742565b005b3480156101e957600080fd5b506101fd6101f8366004611bc8565b610b0c565b6040516101239190611c05565b34801561021657600080fd5b50610119610225366004611af9565b610bd9565b34801561023657600080fd5b5061024a61024536600461193c565b610bf5565b60408051958652602086019490945292840191909152151560608301521515608082015260a001610123565b34801561028257600080fd5b506101fd610291366004611c1f565b610c95565b3480156102a257600080fd5b506101fd6102b1366004611c1f565b610d01565b3480156102c257600080fd5b506102cb610d6b565b6040516101239190611c75565b3480156102e457600080fd5b506101db6102f336600461193c565b6111fd565b34801561030457600080fd5b50610318610313366004611af9565b611353565b604051610123959493929190611e1c565b34801561033557600080fd5b506101fd611433565b34801561034a57600080fd5b50610119610359366004611e50565b6114fe565b34801561036a57600080fd5b5061037e610379366004611c1f565b6117e4565b6040516101239190611f3e565b6060808260045481106103b95760405162461bcd60e51b81526004016103b090611fd6565b60405180910390fd5b60008481526020818152604091829020600781018054845181850281018501909552808552909360089092019284919083018282801561042257602002820191906000526020600020905b81546001600160a01b03168152600190910190602001808311610404575b505050505091508080548060200260200160405190810160405280929190818152602001828054801561047457602002820191906000526020600020905b815481526020019060010190808311610460575b505050505090509250925050915091565b600060208190529081526040902080546001820180546001600160a01b0390921692916104b19061200d565b80601f01602080910402602001604051908101604052809291908181526020018280546104dd9061200d565b801561052a5780601f106104ff5761010080835404028352916020019161052a565b820191906000526020600020905b81548152906001019060200180831161050d57829003601f168201915b50505050509080600201805461053f9061200d565b80601f016020809104026020016040519081016040528092919081815260200182805461056b9061200d565b80156105b85780601f1061058d576101008083540402835291602001916105b8565b820191906000526020600020905b81548152906001019060200180831161059b57829003601f168201915b5050505050908060030154908060040154908060050154908060060180546105df9061200d565b80601f016020809104026020016040519081016040528092919081815260200182805461060b9061200d565b80156106585780601f1061062d57610100808354040283529160200191610658565b820191906000526020600020905b81548152906001019060200180831161063b57829003601f168201915b505050506009830154600a840154600b85018054949560ff8085169661010090950416945091926106889061200d565b80601f01602080910402602001604051908101604052809291908181526020018280546106b49061200d565b80156107015780601f106106d657610100808354040283529160200191610701565b820191906000526020600020905b8154815290600101906020018083116106e457829003601f168201915b50505050509080600c015490508c565b6001602052816000526040600020818154811061072d57600080fd5b90600052602060002001600091509150505481565b8060045481106107645760405162461bcd60e51b81526004016103b090611fd6565b600082815260208190526040902060090154829060ff166107c05760405162461bcd60e51b815260206004820152601660248201527543616d706169676e206973206e6f742061637469766560501b60448201526064016103b0565b60008181526020819052604090206004015442106108155760405162461bcd60e51b815260206004820152601260248201527110d85b5c185a59db881a185cc8195b99195960721b60448201526064016103b0565b6000838152602081905260409020600a01543410156108825760405162461bcd60e51b815260206004820152602360248201527f446f6e6174696f6e2062656c6f77206d696e696d756d20636f6e74726962757460448201526234b7b760e91b60648201526084016103b0565b6000612710600554346108959190612057565b61089f9190612074565b905060006108ad8234612096565b6000868152602081815260408220600781018054600181810183559185528385200180546001600160a01b0319163317905560088201805491820181558452918320909101839055600581018054939450909284929061090e9084906120a9565b9091555050336000818152600260209081526040808320805460018181018355918552838520018b90559383526003825291829020825160a081019093528983529284018054918301916109619061200d565b80601f016020809104026020016040519081016040528092919081815260200182805461098d9061200d565b80156109da5780601f106109af576101008083540402835291602001916109da565b820191906000526020600020905b8154815290600101906020018083116109bd57829003601f168201915b5050509183525050602081018590524260408201526060016000905281546001818101845560009384526020938490208351600590930201918255928201519192909190820190610a2b908261210b565b506040820151600282015560608201516003820155608082015160048201805460ff191660018381811115610a6257610a62611de4565b021790555050508060030154816005015410610a8a5760098101805461ff0019166101001790555b604080518781523360208201529081018390527fe555da28bdb778f65d22794d88927ebaeca03f7de9d1b7d39245bc8fb5ca078a9060600160405180910390a180546040516001600160a01b039091169083156108fc029084906000818181858888f19350505050158015610b03573d6000803e3d6000fd5b50505050505050565b6060600060045467ffffffffffffffff811115610b2b57610b2b611b23565b604051908082528060200260200182016040528015610b54578160200160208202803683370190505b5090506000805b600454811015610bd0578480519060200120600080838152602001908152602001600020600b01604051610b8f91906121ca565b604051809103902003610bc85780838381518110610baf57610baf61223f565b602090810291909101015281610bc481612255565b9250505b600101610b5b565b50815292915050565b6002602052816000526040600020818154811061072d57600080fd5b6000806000806000856004548110610c1f5760405162461bcd60e51b81526004016103b090611fd6565b60008781526020819052604090206007810154965086610c40576000610c50565b868160050154610c509190612074565b955080600401544210610c64576000610c74565b428160040154610c749190612096565b60099091015496989597509560ff8082169661010090920416945092505050565b6001600160a01b038116600090815260026020908152604091829020805483518184028101840190945280845260609392830182828015610cf557602002820191906000526020600020905b815481526020019060010190808311610ce1575b50505050509050919050565b6001600160a01b038116600090815260016020908152604091829020805483518184028101840190945280845260609392830182828015610cf55760200282019190600052602060002090815481526020019060010190808311610ce15750505050509050919050565b6060600060045467ffffffffffffffff811115610d8a57610d8a611b23565b604051908082528060200260200182016040528015610e3a57816020015b610e27604051806101c0016040528060006001600160a01b0316815260200160608152602001606081526020016000815260200160008152602001600081526020016060815260200160608152602001606081526020016000151581526020016000151581526020016000815260200160608152602001600081525090565b815260200190600190039081610da85790505b50905060005b6004548110156111f7576000818152602081815260409182902082516101c0810190935280546001600160a01b0316835260018101805491939284929084019190610e8a9061200d565b80601f0160208091040260200160405190810160405280929190818152602001828054610eb69061200d565b8015610f035780601f10610ed857610100808354040283529160200191610f03565b820191906000526020600020905b815481529060010190602001808311610ee657829003601f168201915b50505050508152602001600282018054610f1c9061200d565b80601f0160208091040260200160405190810160405280929190818152602001828054610f489061200d565b8015610f955780601f10610f6a57610100808354040283529160200191610f95565b820191906000526020600020905b815481529060010190602001808311610f7857829003601f168201915b50505050508152602001600382015481526020016004820154815260200160058201548152602001600682018054610fcc9061200d565b80601f0160208091040260200160405190810160405280929190818152602001828054610ff89061200d565b80156110455780601f1061101a57610100808354040283529160200191611045565b820191906000526020600020905b81548152906001019060200180831161102857829003601f168201915b50505050508152602001600782018054806020026020016040519081016040528092919081815260200182805480156110a757602002820191906000526020600020905b81546001600160a01b03168152600190910190602001808311611089575b50505050508152602001600882018054806020026020016040519081016040528092919081815260200182805480156110ff57602002820191906000526020600020905b8154815260200190600101908083116110eb575b5050509183525050600982015460ff808216151560208401526101009091041615156040820152600a8201546060820152600b820180546080909201916111459061200d565b80601f01602080910402602001604051908101604052809291908181526020018280546111719061200d565b80156111be5780601f10611193576101008083540402835291602001916111be565b820191906000526020600020905b8154815290600101906020018083116111a157829003601f168201915b50505050508152602001600c820154815250508383815181106111e3576111e361223f565b602090810291909101015250600101610e40565b50919050565b60008181526020819052604090205481906001600160a01b031633146112795760405162461bcd60e51b815260206004820152602b60248201527f4f6e6c792063616d706169676e206f776e65722063616e20706572666f726d2060448201526a3a3434b99030b1ba34b7b760a91b60648201526084016103b0565b81600454811061129b5760405162461bcd60e51b81526004016103b090611fd6565b6000838152602081905260409020600981015460ff166112fd5760405162461bcd60e51b815260206004820152601a60248201527f43616d706169676e20697320616c726561647920636c6f73656400000000000060448201526064016103b0565b60098101805460ff1916908190556040805186815261010090920460ff16151560208301527fb08312190b5508b59f34a0cda3a5b1010da8272854d7556b9fc6e126c22fe49d910160405180910390a150505050565b6003602052816000526040600020818154811061136f57600080fd5b9060005260206000209060050201600091509150508060000154908060010180546113999061200d565b80601f01602080910402602001604051908101604052809291908181526020018280546113c59061200d565b80156114125780601f106113e757610100808354040283529160200191611412565b820191906000526020600020905b8154815290600101906020018083116113f557829003601f168201915b50505050600283015460038401546004909401549293909290915060ff1685565b6060600060045467ffffffffffffffff81111561145257611452611b23565b60405190808252806020026020018201604052801561147b578160200160208202803683370190505b5090506000805b6004548110156114f65760008181526020819052604090206009015460ff1680156114bd575060008181526020819052604090206004015442105b156114ee57808383815181106114d5576114d561223f565b6020908102919091010152816114ea81612255565b9250505b600101611482565b508152919050565b600042851161154f5760405162461bcd60e51b815260206004820152601e60248201527f446561646c696e65206d75737420626520696e2074686520667574757265000060448201526064016103b0565b600086116115ab5760405162461bcd60e51b8152602060048201526024808201527f54617267657420616d6f756e74206d75737420626520677265617465722074686044820152630616e20360e41b60648201526084016103b0565b6000831161160f5760405162461bcd60e51b815260206004820152602b60248201527f4d696e696d756d20636f6e747269627574696f6e206d7573742062652067726560448201526a061746572207468616e20360ac1b60648201526084016103b0565b60008851116116585760405162461bcd60e51b81526020600482015260156024820152745469746c652063616e6e6f7420626520656d70747960581b60448201526064016103b0565b60008751116116a95760405162461bcd60e51b815260206004820152601b60248201527f4465736372697074696f6e2063616e6e6f7420626520656d707479000000000060448201526064016103b0565b600454600090815260208190526040902080546001600160a01b0319166001600160a01b038b16178155600181016116e18a8261210b565b50600281016116f0898261210b565b5060038101879055600481018690556000600582015560068101611714868261210b565b5060098101805461ffff19166001179055600a8101849055600b810161173a848261210b565b5042600c8201556001600160a01b038a16600090815260016020818152604080842060048054825495860183559186529290942090920192909255905490517f825fb10f7650ed27414d6f86acdf7d5946927d9b25001f045f1a2435deec02fe916117aa918d908d908c9061226e565b60405180910390a1600480549060006117c283612255565b919050555060016004546117d69190612096565b9a9950505050505050505050565b6001600160a01b0381166000908152600360209081526040808320805482518185028101850190935280835260609492939192909184015b8282101561193157838290600052602060002090600502016040518060a0016040529081600082015481526020016001820180546118599061200d565b80601f01602080910402602001604051908101604052809291908181526020018280546118859061200d565b80156118d25780601f106118a7576101008083540402835291602001916118d2565b820191906000526020600020905b8154815290600101906020018083116118b557829003601f168201915b50505091835250506002820154602082015260038201546040820152600482015460609091019060ff16600181111561190d5761190d611de4565b600181111561191e5761191e611de4565b815250508152602001906001019061181c565b505050509050919050565b60006020828403121561194e57600080fd5b5035919050565b600081518084526020840193506020830160005b82811015611987578151865260209586019590910190600101611969565b5093949350505050565b6040808252835190820181905260009060208501906060840190835b818110156119d45783516001600160a01b03168352602093840193909201916001016119ad565b505083810360208501526119e88186611955565b9695505050505050565b6000815180845260005b81811015611a18576020818501810151868301820152016119fc565b506000602082860101526020601f19601f83011685010191505092915050565b6001600160a01b038d16815261018060208201819052600090611a5d9083018e6119f2565b8281036040840152611a6f818e6119f2565b90508b60608401528a60808401528960a084015282810360c0840152611a95818a6119f2565b88151560e0850152905086151561010084015285610120840152828103610140840152611ac281866119f2565b915050826101608301529d9c50505050505050505050505050565b80356001600160a01b0381168114611af457600080fd5b919050565b60008060408385031215611b0c57600080fd5b611b1583611add565b946020939093013593505050565b634e487b7160e01b600052604160045260246000fd5b600082601f830112611b4a57600080fd5b813567ffffffffffffffff811115611b6457611b64611b23565b604051601f8201601f19908116603f0116810167ffffffffffffffff81118282101715611b9357611b93611b23565b604052818152838201602001851015611bab57600080fd5b816020850160208301376000918101602001919091529392505050565b600060208284031215611bda57600080fd5b813567ffffffffffffffff811115611bf157600080fd5b611bfd84828501611b39565b949350505050565b602081526000611c186020830184611955565b9392505050565b600060208284031215611c3157600080fd5b611c1882611add565b600081518084526020840193506020830160005b828110156119875781516001600160a01b0316865260209586019590910190600101611c4e565b6000602082016020835280845180835260408501915060408160051b86010192506020860160005b82811015611dd857868503603f19018452815180516001600160a01b0316865260208101516101c06020880152611cd86101c08801826119f2565b905060408201518782036040890152611cf182826119f2565b915050606082015160608801526080820151608088015260a082015160a088015260c082015187820360c0890152611d2982826119f2565b91505060e082015187820360e0890152611d438282611c3a565b915050610100820151878203610100890152611d5f8282611955565b915050610120820151611d7761012089018215159052565b50610140820151611d8d61014089018215159052565b50610160820151610160880152610180820151878203610180890152611db382826119f2565b6101a09384015198909301979097525094506020938401939190910190600101611c9d565b50929695505050505050565b634e487b7160e01b600052602160045260246000fd5b60028110611e1857634e487b7160e01b600052602160045260246000fd5b9052565b85815260a060208201526000611e3560a08301876119f2565b90508460408301528360608301526119e86080830184611dfa565b600080600080600080600080610100898b031215611e6d57600080fd5b611e7689611add565b9750602089013567ffffffffffffffff811115611e9257600080fd5b611e9e8b828c01611b39565b975050604089013567ffffffffffffffff811115611ebb57600080fd5b611ec78b828c01611b39565b965050606089013594506080890135935060a089013567ffffffffffffffff811115611ef257600080fd5b611efe8b828c01611b39565b93505060c0890135915060e089013567ffffffffffffffff811115611f2257600080fd5b611f2e8b828c01611b39565b9150509295985092959890939650565b6000602082016020835280845180835260408501915060408160051b86010192506020860160005b82811015611dd857603f19878603018452815180518652602081015160a06020880152611f9660a08801826119f2565b9050604082015160408801526060820151606088015260808201519150611fc06080880183611dfa565b9550506020938401939190910190600101611f66565b60208082526017908201527f43616d706169676e20646f6573206e6f74206578697374000000000000000000604082015260600190565b600181811c9082168061202157607f821691505b6020821081036111f757634e487b7160e01b600052602260045260246000fd5b634e487b7160e01b600052601160045260246000fd5b808202811582820484141761206e5761206e612041565b92915050565b60008261209157634e487b7160e01b600052601260045260246000fd5b500490565b8181038181111561206e5761206e612041565b8082018082111561206e5761206e612041565b601f82111561210657806000526020600020601f840160051c810160208510156120e35750805b601f840160051c820191505b8181101561210357600081556001016120ef565b50505b505050565b815167ffffffffffffffff81111561212557612125611b23565b61213981612133845461200d565b846120bc565b6020601f82116001811461216d57600083156121555750848201515b600019600385901b1c1916600184901b178455612103565b600084815260208120601f198516915b8281101561219d578785015182556020948501946001909201910161217d565b50848210156121bb5786840151600019600387901b60f8161c191681555b50505050600190811b01905550565b60008083546121d88161200d565b6001821680156121ef576001811461220457612234565b60ff1983168652811515820286019350612234565b86600052602060002060005b8381101561222c57815488820152600190910190602001612210565b505081860193505b509195945050505050565b634e487b7160e01b600052603260045260246000fd5b60006001820161226757612267612041565b5060010190565b8481526001600160a01b0384166020820152608060408201819052600090612298908301856119f2565b90508260608301529594505050505056fea26469706673582212204c97cc44c1129471bebde85b5fcbbc337fe451118c9f37cb4b859e78fe5b40ae64736f6c634300081c0033",
  "immutableReferences": {},
  "source": "// SPDX-License-Identifier: UNLICENSED\npragma solidity ^0.8.9;\n\ncontract CrowdFunding {\n    struct Transaction {\n        uint256 campaignId;\n        string campaignTitle;\n        uint256 amount;\n        uint256 timestamp;\n        TransactionType txType;\n    }\n\n    enum TransactionType { DONATION, WITHDRAWAL }\n\n    struct Campaign {\n        address owner;\n        string title;\n        string description;\n        uint256 target;\n        uint256 deadline;\n        uint256 amountCollected;\n        string image;\n        address[] donators;\n        uint256[] donations;\n        bool isActive;\n        bool targetReached;\n        uint256 minimumContribution;\n        string category;\n        uint256 createdAt;\n    }\n\n    mapping(uint256 => Campaign) public campaigns;\n    mapping(address => uint256[]) public userCampaigns;\n    mapping(address => uint256[]) public userDonations;\n    mapping(address => Transaction[]) public userTransactions;\n\n    uint256 public numberOfCampaigns = 0;\n    uint256 public platformFee = 25; // 0.25% fee\n\n    event CampaignCreated(uint256 campaignId, address owner, string title, uint256 target);\n    event DonationMade(uint256 campaignId, address donor, uint256 amount);\n    event CampaignClosed(uint256 campaignId, bool targetReached);\n    event FundsWithdrawn(uint256 campaignId, address owner, uint256 amount);\n    event RefundIssued(uint256 campaignId, address donor, uint256 amount);\n\n    \n    modifier onlyCampaignOwner(uint256 _id) {\n        require(campaigns[_id].owner == msg.sender, \"Only campaign owner can perform this action\");\n        _;\n    }\n\n    modifier campaignExists(uint256 _id) {\n        require(_id < numberOfCampaigns, \"Campaign does not exist\");\n        _;\n    }\n\n    modifier campaignActive(uint256 _id) {\n        require(campaigns[_id].isActive, \"Campaign is not active\");\n        require(block.timestamp < campaigns[_id].deadline, \"Campaign has ended\");\n        _;\n    }\n\n    function createCampaign(\n        address _owner,\n        string memory _title,\n        string memory _description,\n        uint256 _target,\n        uint256 _deadline,\n        string memory _image,\n        uint256 _minimumContribution,\n        string memory _category\n    ) public returns (uint256) {\n        require(_deadline > block.timestamp, \"Deadline must be in the future\");\n        require(_target > 0, \"Target amount must be greater than 0\");\n        require(_minimumContribution > 0, \"Minimum contribution must be greater than 0\");\n        require(bytes(_title).length > 0, \"Title cannot be empty\");\n        require(bytes(_description).length > 0, \"Description cannot be empty\");\n\n        Campaign storage campaign = campaigns[numberOfCampaigns];\n        campaign.owner = _owner;\n        campaign.title = _title;\n        campaign.description = _description;\n        campaign.target = _target;\n        campaign.deadline = _deadline;\n        campaign.amountCollected = 0;\n        campaign.image = _image;\n        campaign.isActive = true;\n        campaign.targetReached = false;\n        campaign.minimumContribution = _minimumContribution;\n        campaign.category = _category;\n        campaign.createdAt = block.timestamp;\n\n        userCampaigns[_owner].push(numberOfCampaigns);\n        \n        emit CampaignCreated(numberOfCampaigns, _owner, _title, _target);\n        \n        numberOfCampaigns++;\n        return numberOfCampaigns - 1;\n    }\n\n    \n\n      function donateToCampaign(uint256 _id) public payable campaignExists(_id) campaignActive(_id) {\n        require(msg.value >= campaigns[_id].minimumContribution, \"Donation below minimum contribution\");\n        \n        uint256 fee = (msg.value * platformFee) / 10000;\n        uint256 donation = msg.value - fee;\n        \n        Campaign storage campaign = campaigns[_id];\n        campaign.donators.push(msg.sender);\n        campaign.donations.push(donation);\n        campaign.amountCollected += donation;\n        \n        userDonations[msg.sender].push(_id);\n\n        // Record transaction\n        userTransactions[msg.sender].push(Transaction({\n            campaignId: _id,\n            campaignTitle: campaign.title,\n            amount: donation,\n            timestamp: block.timestamp,\n            txType: TransactionType.DONATION\n        }));\n\n        if (campaign.amountCollected >= campaign.target) {\n            campaign.targetReached = true;\n        }\n\n        emit DonationMade(_id, msg.sender, donation);\n        \n        payable(campaign.owner).transfer(donation);\n    }\n\n    function getUserTransactions(address _user) public view returns (Transaction[] memory) {\n        return userTransactions[_user];\n    }\n\n    function closeCampaign(uint256 _id) public onlyCampaignOwner(_id) campaignExists(_id) {\n        Campaign storage campaign = campaigns[_id];\n        require(campaign.isActive, \"Campaign is already closed\");\n        \n        campaign.isActive = false;\n        emit CampaignClosed(_id, campaign.targetReached);\n    }\n\n    function getUserCampaigns(address _user) public view returns (uint256[] memory) {\n        return userCampaigns[_user];\n    }\n\n    function getUserDonations(address _user) public view returns (uint256[] memory) {\n        return userDonations[_user];\n    }\n\n    function getCampaignsByCategory(string memory _category) public view returns (uint256[] memory) {\n        uint256[] memory result = new uint256[](numberOfCampaigns);\n        uint256 count = 0;\n        \n        for(uint256 i = 0; i < numberOfCampaigns; i++) {\n            if (keccak256(bytes(campaigns[i].category)) == keccak256(bytes(_category))) {\n                result[count] = i;\n                count++;\n            }\n        }\n        \n        // Resize array to actual count\n        assembly {\n            mstore(result, count)\n        }\n        \n        return result;\n    }\n\n    function getDonators(uint256 _id) public view campaignExists(_id) \n        returns (address[] memory, uint256[] memory) {\n        return (campaigns[_id].donators, campaigns[_id].donations);\n    }\n\n    function getCampaignStats(uint256 _id) public view campaignExists(_id) \n        returns (\n            uint256 totalDonors,\n            uint256 averageDonation,\n            uint256 timeLeft,\n            bool isActive,\n            bool targetReached\n        ) {\n        Campaign storage campaign = campaigns[_id];\n        \n        totalDonors = campaign.donators.length;\n        averageDonation = totalDonors > 0 ? campaign.amountCollected / totalDonors : 0;\n        timeLeft = block.timestamp < campaign.deadline ? campaign.deadline - block.timestamp : 0;\n        isActive = campaign.isActive;\n        targetReached = campaign.targetReached;\n    }\n\n    function getCampaigns() public view returns (Campaign[] memory) {\n        Campaign[] memory allCampaigns = new Campaign[](numberOfCampaigns);\n        \n        for(uint256 i = 0; i < numberOfCampaigns; i++) {\n            Campaign storage item = campaigns[i];\n            allCampaigns[i] = item;\n        }\n        \n        return allCampaigns;\n    }\n\n    function getActiveCampaigns() public view returns (uint256[] memory) {\n        uint256[] memory activeCampaigns = new uint256[](numberOfCampaigns);\n        uint256 count = 0;\n        \n        for(uint256 i = 0; i < numberOfCampaigns; i++) {\n            if (campaigns[i].isActive && block.timestamp < campaigns[i].deadline) {\n                activeCampaigns[count] = i;\n                count++;\n            }\n        }\n        \n        // Resize array to actual count\n        assembly {\n            mstore(activeCampaigns, count)\n        }\n        \n        return activeCampaigns;\n    }\n}",
  "sourcePath": "D:\\blockchain\\project_crowdfunding-master\\truffle\\contracts\\CrowdFunding.sol",
  "compiler": {
    "name": "solc",
    "version": "0.8.28+commit.7893614a.Emscripten.clang"
  },
  "schemaVersion": "3.4.16",
  "updatedAt": "2025-01-08T22:11:06.551Z",
  "networkType": "ethereum",
  "devdoc": {
    "kind": "dev",
    "methods": {},
    "version": 1
  },
  "userdoc": {
    "kind": "user",
    "methods": {},
    "version": 1
  }
}