{
  "contractName": "CrowdFunding",
  "abi": [
    {
      "inputs": [
        {
          "internalType": "uint256",
          "name": "",
          "type": "uint256"
        }
      ],
      "name": "campaigns",
      "outputs": [
        {
          "internalType": "address",
          "name": "owner",
          "type": "address"
        },
        {
          "internalType": "string",
          "name": "title",
          "type": "string"
        },
        {
          "internalType": "string",
          "name": "description",
          "type": "string"
        },
        {
          "internalType": "uint256",
          "name": "target",
          "type": "uint256"
        },
        {
          "internalType": "uint256",
          "name": "deadline",
          "type": "uint256"
        },
        {
          "internalType": "uint256",
          "name": "amountCollected",
          "type": "uint256"
        },
        {
          "internalType": "string",
          "name": "image",
          "type": "string"
        }
      ],
      "stateMutability": "view",
      "type": "function",
      "constant": true
    },
    {
      "inputs": [],
      "name": "numberOfCampaigns",
      "outputs": [
        {
          "internalType": "uint256",
          "name": "",
          "type": "uint256"
        }
      ],
      "stateMutability": "view",
      "type": "function",
      "constant": true
    },
    {
      "inputs": [
        {
          "internalType": "address",
          "name": "_owner",
          "type": "address"
        },
        {
          "internalType": "string",
          "name": "_title",
          "type": "string"
        },
        {
          "internalType": "string",
          "name": "_description",
          "type": "string"
        },
        {
          "internalType": "uint256",
          "name": "_target",
          "type": "uint256"
        },
        {
          "internalType": "uint256",
          "name": "_deadline",
          "type": "uint256"
        },
        {
          "internalType": "string",
          "name": "_image",
          "type": "string"
        }
      ],
      "name": "createCampaign",
      "outputs": [
        {
          "internalType": "uint256",
          "name": "",
          "type": "uint256"
        }
      ],
      "stateMutability": "nonpayable",
      "type": "function"
    },
    {
      "inputs": [
        {
          "internalType": "uint256",
          "name": "_id",
          "type": "uint256"
        }
      ],
      "name": "donateToCampaign",
      "outputs": [],
      "stateMutability": "payable",
      "type": "function",
      "payable": true
    },
    {
      "inputs": [
        {
          "internalType": "uint256",
          "name": "_id",
          "type": "uint256"
        }
      ],
      "name": "getDonators",
      "outputs": [
        {
          "internalType": "address[]",
          "name": "",
          "type": "address[]"
        },
        {
          "internalType": "uint256[]",
          "name": "",
          "type": "uint256[]"
        }
      ],
      "stateMutability": "view",
      "type": "function",
      "constant": true
    },
    {
      "inputs": [],
      "name": "getCampaigns",
      "outputs": [
        {
          "components": [
            {
              "internalType": "address",
              "name": "owner",
              "type": "address"
            },
            {
              "internalType": "string",
              "name": "title",
              "type": "string"
            },
            {
              "internalType": "string",
              "name": "description",
              "type": "string"
            },
            {
              "internalType": "uint256",
              "name": "target",
              "type": "uint256"
            },
            {
              "internalType": "uint256",
              "name": "deadline",
              "type": "uint256"
            },
            {
              "internalType": "uint256",
              "name": "amountCollected",
              "type": "uint256"
            },
            {
              "internalType": "string",
              "name": "image",
              "type": "string"
            },
            {
              "internalType": "address[]",
              "name": "donators",
              "type": "address[]"
            },
            {
              "internalType": "uint256[]",
              "name": "donations",
              "type": "uint256[]"
            }
          ],
          "internalType": "struct CrowdFunding.Campaign[]",
          "name": "",
          "type": "tuple[]"
        }
      ],
      "stateMutability": "view",
      "type": "function",
      "constant": true
    }
  ],
  "bytecode": "0x60806040526000600155348015601457600080fd5b50610f7b806100246000396000f3fe6080604052600436106100555760003560e01c806307ca140d1461005a5780630fa91fa914610083578063141961bc146100b157806342a4fda8146100e45780639943e3a1146100f9578063a6b0363314610119575b600080fd5b34801561006657600080fd5b5061007060015481565b6040519081526020015b60405180910390f35b34801561008f57600080fd5b506100a361009e36600461094e565b61013b565b60405161007a929190610967565b3480156100bd57600080fd5b506100d16100cc36600461094e565b61020a565b60405161007a9796959493929190610a38565b6100f76100f236600461094e565b6103e7565b005b34801561010557600080fd5b50610070610114366004610b47565b6104a9565b34801561012557600080fd5b5061012e6105ac565b60405161007a9190610c83565b600081815260208181526040918290206007810180548451818502810185019095528085526060948594929360080192909184918301828280156101a857602002820191906000526020600020905b81546001600160a01b0316815260019091019060200180831161018a575b50505050509150808054806020026020016040519081016040528092919081815260200182805480156101fa57602002820191906000526020600020905b8154815260200190600101908083116101e6575b5050505050905091509150915091565b600060208190529081526040902080546001820180546001600160a01b03909216929161023690610d92565b80601f016020809104026020016040519081016040528092919081815260200182805461026290610d92565b80156102af5780601f10610284576101008083540402835291602001916102af565b820191906000526020600020905b81548152906001019060200180831161029257829003601f168201915b5050505050908060020180546102c490610d92565b80601f01602080910402602001604051908101604052809291908181526020018280546102f090610d92565b801561033d5780601f106103125761010080835404028352916020019161033d565b820191906000526020600020905b81548152906001019060200180831161032057829003601f168201915b50505050509080600301549080600401549080600501549080600601805461036490610d92565b80601f016020809104026020016040519081016040528092919081815260200182805461039090610d92565b80156103dd5780601f106103b2576101008083540402835291602001916103dd565b820191906000526020600020905b8154815290600101906020018083116103c057829003601f168201915b5050505050905087565b600081815260208181526040808320600781018054600180820183559186528486200180546001600160a01b0319163317905560088201805491820181558552928420349301839055805491519293909290916001600160a01b03169084908381818185875af1925050503d806000811461047e576040519150601f19603f3d011682016040523d82523d6000602084013e610483565b606091505b5050905080156104a35782826005015461049d9190610ddc565b60058301555b50505050565b60015460009081526020819052604081204284116105225760405162461bcd60e51b815260206004820152602c60248201527f54686520646561646c696e652073686f756c642062652061206461746520696e60448201526b103a343290333aba3ab9329760a11b606482015260840160405180910390fd5b80546001600160a01b0319166001600160a01b038916178155600181016105498882610e44565b50600281016105588782610e44565b506003810185905560048101849055600060058201556006810161057c8482610e44565b506001805490600061058d83610f03565b9190505550600180546105a09190610f1c565b98975050505050505050565b6060600060015467ffffffffffffffff8111156105cb576105cb610aa2565b60405190808252806020026020018201604052801561065457816020015b61064160405180610120016040528060006001600160a01b0316815260200160608152602001606081526020016000815260200160008152602001600081526020016060815260200160608152602001606081525090565b8152602001906001900390816105e95790505b50905060005b60015481101561094857600081815260208181526040918290208251610120810190935280546001600160a01b03168352600181018054919392849290840191906106a490610d92565b80601f01602080910402602001604051908101604052809291908181526020018280546106d090610d92565b801561071d5780601f106106f25761010080835404028352916020019161071d565b820191906000526020600020905b81548152906001019060200180831161070057829003601f168201915b5050505050815260200160028201805461073690610d92565b80601f016020809104026020016040519081016040528092919081815260200182805461076290610d92565b80156107af5780601f10610784576101008083540402835291602001916107af565b820191906000526020600020905b81548152906001019060200180831161079257829003601f168201915b505050505081526020016003820154815260200160048201548152602001600582015481526020016006820180546107e690610d92565b80601f016020809104026020016040519081016040528092919081815260200182805461081290610d92565b801561085f5780601f106108345761010080835404028352916020019161085f565b820191906000526020600020905b81548152906001019060200180831161084257829003601f168201915b50505050508152602001600782018054806020026020016040519081016040528092919081815260200182805480156108c157602002820191906000526020600020905b81546001600160a01b031681526001909101906020018083116108a3575b505050505081526020016008820180548060200260200160405190810160405280929190818152602001828054801561091957602002820191906000526020600020905b815481526020019060010190808311610905575b50505050508152505083838151811061093457610934610f2f565b60209081029190910101525060010161065a565b50919050565b60006020828403121561096057600080fd5b5035919050565b6040808252835190820181905260009060208501906060840190835b818110156109aa5783516001600160a01b0316835260209384019390920191600101610983565b50508381036020808601919091528551808352918101925085019060005b818110156109e65782518452602093840193909201916001016109c8565b50919695505050505050565b6000815180845260005b81811015610a18576020818501810151868301820152016109fc565b506000602082860101526020601f19601f83011685010191505092915050565b6001600160a01b038816815260e060208201819052600090610a5c908301896109f2565b8281036040840152610a6e81896109f2565b90508660608401528560808401528460a084015282810360c0840152610a9481856109f2565b9a9950505050505050505050565b634e487b7160e01b600052604160045260246000fd5b600082601f830112610ac957600080fd5b813567ffffffffffffffff811115610ae357610ae3610aa2565b604051601f8201601f19908116603f0116810167ffffffffffffffff81118282101715610b1257610b12610aa2565b604052818152838201602001851015610b2a57600080fd5b816020850160208301376000918101602001919091529392505050565b60008060008060008060c08789031215610b6057600080fd5b86356001600160a01b0381168114610b7757600080fd5b9550602087013567ffffffffffffffff811115610b9357600080fd5b610b9f89828a01610ab8565b955050604087013567ffffffffffffffff811115610bbc57600080fd5b610bc889828a01610ab8565b945050606087013592506080870135915060a087013567ffffffffffffffff811115610bf357600080fd5b610bff89828a01610ab8565b9150509295509295509295565b600081518084526020840193506020830160005b82811015610c475781516001600160a01b0316865260209586019590910190600101610c20565b5093949350505050565b600081518084526020840193506020830160005b82811015610c47578151865260209586019590910190600101610c65565b6000602082016020835280845180835260408501915060408160051b86010192506020860160005b82811015610d8657868503603f19018452815180516001600160a01b0316865260208101516101206020880152610ce66101208801826109f2565b905060408201518782036040890152610cff82826109f2565b915050606082015160608801526080820151608088015260a082015160a088015260c082015187820360c0890152610d3782826109f2565b91505060e082015187820360e0890152610d518282610c0c565b9150506101008201519150868103610100880152610d6f8183610c51565b965050506020938401939190910190600101610cab565b50929695505050505050565b600181811c90821680610da657607f821691505b60208210810361094857634e487b7160e01b600052602260045260246000fd5b634e487b7160e01b600052601160045260246000fd5b80820180821115610def57610def610dc6565b92915050565b601f821115610e3f57806000526020600020601f840160051c81016020851015610e1c5750805b601f840160051c820191505b81811015610e3c5760008155600101610e28565b50505b505050565b815167ffffffffffffffff811115610e5e57610e5e610aa2565b610e7281610e6c8454610d92565b84610df5565b6020601f821160018114610ea65760008315610e8e5750848201515b600019600385901b1c1916600184901b178455610e3c565b600084815260208120601f198516915b82811015610ed65787850151825560209485019460019092019101610eb6565b5084821015610ef45786840151600019600387901b60f8161c191681555b50505050600190811b01905550565b600060018201610f1557610f15610dc6565b5060010190565b81810381811115610def57610def610dc6565b634e487b7160e01b600052603260045260246000fdfea264697066735822122060d032c02e88a73e577f5463b20ecd266418bd8b6d5866b4701c29b398dc8e2264736f6c634300081c0033",
  "immutableReferences": {},
  "source": "// SPDX-License-Identifier: UNLICENSED\npragma solidity ^0.8.9;\n\ncontract CrowdFunding {\n    struct Campaign {\n        address owner;\n        string title;\n        string description;\n        uint256 target;\n        uint256 deadline;\n        uint256 amountCollected;\n        string image;\n        address[] donators;\n        uint256[] donations;\n    }\n\n    mapping(uint256 => Campaign) public campaigns;\n\n    uint256 public numberOfCampaigns = 0;\n\n    function createCampaign(address _owner, string memory _title, string memory _description, uint256 _target, uint256 _deadline, string memory _image) public returns (uint256) {\n        Campaign storage campaign = campaigns[numberOfCampaigns];\n\n        // Fix: Changed < to > to ensure deadline is in the future\n        require(_deadline > block.timestamp, \"The deadline should be a date in the future.\");\n\n        campaign.owner = _owner;\n        campaign.title = _title;\n        campaign.description = _description;\n        campaign.target = _target;\n        campaign.deadline = _deadline;\n        campaign.amountCollected = 0;\n        campaign.image = _image;\n\n        numberOfCampaigns++;\n\n        return numberOfCampaigns - 1;\n    }\n\n    function donateToCampaign(uint256 _id) public payable {\n        uint256 amount = msg.value;\n\n        Campaign storage campaign = campaigns[_id];\n\n        campaign.donators.push(msg.sender);\n        campaign.donations.push(amount);\n\n        (bool sent,) = payable(campaign.owner).call{value: amount}(\"\");\n\n        if(sent) {\n            campaign.amountCollected = campaign.amountCollected + amount;\n        }\n    }\n\n    function getDonators(uint256 _id) view public returns (address[] memory, uint256[] memory) {\n        return (campaigns[_id].donators, campaigns[_id].donations);\n    }\n\n    function getCampaigns() public view returns (Campaign[] memory) {\n        Campaign[] memory allCampaigns = new Campaign[](numberOfCampaigns);\n\n        for(uint i = 0; i < numberOfCampaigns; i++) {\n            Campaign storage item = campaigns[i];\n\n            allCampaigns[i] = item;\n        }\n\n        return allCampaigns;\n    }\n}",
  "sourcePath": "D:\\blockchain\\project_crowdfunding-master\\truffle\\contracts\\CrowdFunding.sol",
  "compiler": {
    "name": "solc",
    "version": "0.8.28+commit.7893614a.Emscripten.clang"
  },
  "schemaVersion": "3.4.16",
  "updatedAt": "2025-01-08T17:20:25.848Z",
  "networkType": "ethereum",
  "devdoc": {
    "kind": "dev",
    "methods": {},
    "version": 1
  },
  "userdoc": {
    "kind": "user",
    "methods": {},
    "version": 1
  }
}